:100000000C942A000C9447000C9447000C94470071
:100010000C9447000C9447000C9447000C94470044
:100020000C9447000C9447000C9447000C94DA069B
:100030000C9447000C9447000C9447000C94470024
:100040000C9420090C9447000C9447000C94470032
:100050000C94470011241FBECFE5D8E0DEBFCDBF12
:1000600011E0A0E6B0E0E0EFF6E102C005900D92ED
:10007000A237B107D9F711E0A2E7B1E001C01D92A4
:10008000AC37B107E1F70E94C00A0C94760B0C94D0
:100090000000EF92FF920F931F937B018C0120E0F1
:1000A00030E040E05FE40E94C50388238CF0C80183
:1000B000B70120E030E040E05FE40E94C1010E940F
:1000C000F5039B01AC01205030404040504806C031
:1000D000C801B7010E94F5039B01AC01B901CA0137
:1000E0001F910F91FF90EF900895A0E0B0E0EBE733
:1000F000F0E00C943F0BDC012B01FA019C91923053
:1001000008F439C1EB018881823008F433C194309E
:1001100069F4843009F02FC111969C91119789815F
:10012000981709F428C1A0E6B0E025C1843009F48D
:1001300021C18230A9F4923009F01DC19A01AD01AC
:1001400088E0EA010990AE01E90109929E0181501F
:10015000C1F7E201898111969C918923818308C1AD
:10016000923009F407C112962D903C901397EB0141
:100170008A819B811496AD90BD90CD90DC901797AD
:10018000EC80FD800E811F819101281B390BB90184
:1001900037FF04C066277727621B730B6032710537
:1001A0000CF061C0121613066CF537014801062EDB
:1001B00004C096948794779467940A94D2F721E0C8
:1001C00030E040E050E004C0220F331F441F551FB1
:1001D0006A95D2F721503040404050402E213F21B7
:1001E00040235123211531054105510521F021E01E
:1001F00030E040E050E079018A01E628F72808293C
:1002000019293CC0232BD1F1260E371E350146019A
:10021000062E04C096948794779467940A94D2F734
:1002200021E030E040E050E004C0220F331F441FC3
:10023000551F6A95D2F721503040404050402A2146
:100240003B214C215D21211531054105510521F04E
:1002500021E030E040E050E059016A01A628B728CB
:10026000C828D9280BC0821593052CF01C01AA249C
:10027000BB24650103C0EE24FF24870111969C91E5
:10028000D20111968C91981709F445C0992339F041
:10029000A80197012A193B094C095D0906C0A6016E
:1002A00095012E193F09400B510B57FD08C01182D3
:1002B0003382228224833583468357831DC081E0A5
:1002C00081833382228288279927DC01821B930B4A
:1002D000A40BB50B84839583A683B7830DC0220F2F
:1002E000331F441F551F24833583468357838281E0
:1002F000938101979383828324813581468157813D
:10030000DA01C9010197A109B1098F5F9F4FAF4F72
:10031000BF4328F30BC0918333822282EA0CFB1C7B
:100320000C1D1D1DE482F5820683178383E0808304
:10033000248135814681578157FF1AC0C901AA27F8
:1003400097FDA095BA2F81709070A070B0705695EF
:10035000479537952795822B932BA42BB52B848318
:100360009583A683B7838281938101969383828349
:10037000DF0101C0D201CD01CDB7DEB7E2E10C94BF
:100380005B0BA0E2B0E0E7ECF1E00C944B0B69836F
:100390007A838B839C832D833E834F835887E9E048
:1003A000EE2EF12CEC0EFD1ECE010196B7010E943F
:1003B000E6058E010F5E1F4FCE010596B8010E9423
:1003C000E6058A8991E089278A8BC701B801AE01C9
:1003D000475E5F4F0E9475000E941105A096E6E0FF
:1003E0000C94670BA0E2B0E0E8EFF1E00C944B0B4B
:1003F00069837A838B839C832D833E834F835887C5
:10040000F9E0EF2EF12CEC0EFD1ECE010196B701A6
:100410000E94E6058E010F5E1F4FCE010596B801C2
:100420000E94E605C701B801AE01475E5F4F0E941A
:1004300075000E941105A096E6E00C94670BA0E2FF
:10044000B0E0E5E2F2E00C943F0B69837A838B83A2
:100450009C832D833E834F835887CE010196BE0136
:10046000675F7F4F0E94E605CE010596BE016F5E75
:100470007F4F0E94E6059985923088F08989823005
:10048000C8F0943019F4823051F404C0843029F457
:10049000923081F480E690E0C6C0923049F420E0CA
:1004A0009A858A89981321E02A87CE010996BBC0D4
:1004B000823049F420E09A858A89981321E02A8BBA
:1004C000CE014196B0C02D843E844F8458886D88FB
:1004D0007E888F88988CEE24FF248701AA24BB2471
:1004E000650140E050E060E070E0E0E0F0E0C10174
:1004F00081709070892BE9F0E60CF71C081D191D1E
:100500009A01AB012A0D3B1D4C1D5D1D80E090E062
:10051000A0E0B0E0E614F7040805190520F481E036
:1005200090E0A0E0B0E0BA01A901480F591F6A1F8E
:100530007B1FAA0CBB1CCC1CDD1C97FE08C081E0F5
:1005400090E0A0E0B0E0A82AB92ACA2ADB2A3196B6
:10055000E032F10549F0660C771C881C991C569412
:10056000479437942794C3CFFA85EA892B893C892D
:100570008B859C85280F391F2E5F3F4F17C0CA01FE
:1005800081709070892B61F016950795F794E79428
:1005900080E090E0A0E0B0E8E82AF92A0A2B1B2BC3
:1005A00076956795579547952F5F3F4F77FDE7CF36
:1005B0000CC0440F551F661F771F17FD4160EE0CDE
:1005C000FF1C001F111F21503040403090E05907A0
:1005D00090E0690790E4790760F32B8F3C8FDB0193
:1005E000CA018F779070A070B07080349105A1051A
:1005F000B10561F447FD0AC0E114F10401051105DC
:1006000029F0405C5F4F6F4F7F4F40781A8EFE1786
:1006100011F081E08A8F4D8F5E8F6F8F78A383E01A
:10062000898FCE0149960E941105A096E2E10C94B3
:100630005B0BA8E1B0E0EFE1F3E00C94470B6983BA
:100640007A838B839C832D833E834F835887B9E0C5
:10065000EB2EF12CEC0EFD1ECE010196B7010E948F
:10066000E6058E010F5E1F4FCE010596B8010E9470
:10067000E6052985223008F47EC03989323010F42D
:10068000B8017CC08A859A8989278A87243011F02D
:10069000223031F4231709F06EC060E670E06EC0BE
:1006A000343039F41D861E861F86188A1C861B86E8
:1006B00004C0323021F484E08987B7015FC02B8504
:1006C0003C858B899C89281B390B3C872B87ED84C3
:1006D000FE840F851889AD88BE88CF88D88CEA142F
:1006E000FB040C051D0540F4EE0CFF1C001F111F40
:1006F000215030403C872B8720E030E040E050E044
:1007000080E090E0A0E0B0E460E070E0EA14FB0478
:100710000C051D0540F0282B392B4A2B5B2BEA18C2
:10072000FB080C091D09B695A79597958795EE0CC2
:10073000FF1C001F111F6F5F7F4F6F31710531F775
:10074000DA01C9018F779070A070B0708034910584
:10075000A105B10561F427FD0AC0E114F10401050A
:10076000110529F0205C3F4F4F4F5F4F20782D87B8
:100770003E874F87588BBE01675F7F4FCB010E943A
:1007800011056896EAE00C94630BA8E1B0E0EBEC8D
:10079000F3E00C944B0B69837A838B839C832D83CA
:1007A0003E834F83588789E0E82EF12CEC0EFD1E26
:1007B000CE010196B7010E94E6058E010F5E1F4F24
:1007C000CE010596B8010E94E6058985823040F089
:1007D0008989823028F0C701B8010E945E0601C0F5
:1007E0008FEF6896E6E00C94670BACE0B0E0EBEFBF
:1007F000F3E00C944F0B69837A838B839C83CE0147
:100800000196BE016B5F7F4F0E94E6058D818230AD
:1008100061F1823050F1843021F48E81882351F1CE
:100820002EC02F81388537FD20C06E812F313105D4
:100830001CF06623F9F023C08EE190E0821B930B3D
:1008400029853A854B855C8504C056954795379533
:1008500027958A95D2F76623B1F05095409530954B
:1008600021953F4F4F4F5F4F0EC020E030E040E0FA
:1008700050E009C02FEF3FEF4FEF5FE704C020E0EB
:1008800030E040E050E8B901CA012C96E2E00C9457
:100890006B0BA8E0B0E0EFE4F4E00C94470B7B01B5
:1008A0008C01611571058105910519F482E0898338
:1008B00060C083E089838EE1C82ED12CDC82CB829C
:1008C000ED82FE820F831887C801B7010E94C2041F
:1008D000FC013197F7FF3BC0222733272E1B3F0B2C
:1008E00057016801022E04C0D694C794B794A79408
:1008F0000A94D2F740E050E060E070E081E090E0E0
:10090000A0E0B0E004C0880F991FAA1FBB1F2A9562
:10091000D2F70197A109B1098E219F21A023B1230C
:100920000097A105B10521F041E050E060E070E0E2
:100930004A295B296C297D294D835E836F837887E3
:100940008EE190E08E1B9F0B9C838B8312C03097AF
:1009500081F00E2E04C0EE0CFF1C001F111F0A9424
:10096000D2F7ED82FE820F831887CE1ADF0ADC826F
:10097000CB821A82CE0101960E9411052896EAE0E8
:100980000C94630BEF92FF920F931F937B018C01EA
:1009900080E0E81680E0F80681E0080780E01807AC
:1009A00088F48FEFE816F1040105110531F028F005
:1009B00088E090E0A0E0B0E017C080E090E0A0E028
:1009C000B0E012C080E0E81680E0F80680E008079A
:1009D00081E0180728F088E190E0A0E0B0E004C0D2
:1009E00080E190E0A0E0B0E020E230E040E050E0C4
:1009F000281B390B4A0B5B0B04C016950795F7941F
:100A0000E7948A95D2F7F701E859FF4F8081281BB8
:100A1000310941095109C9011F910F91FF90EF90D0
:100A20000895DF92EF92FF920F931F93FC01E480F1
:100A3000F58006811781D1808081823048F480E082
:100A400090E0A0E1B0E0E82AF92A0A2B1B2BA5C010
:100A5000843009F49FC0823021F4EE24FF24870102
:100A600005C0E114F1040105110519F4E0E0F0E01E
:100A700096C0628173819FEF623879070CF05BC08A
:100A800022E83FEF261B370B2A3131052CF020E0FE
:100A900030E040E050E02AC0B801A701022E04C0B7
:100AA00076956795579547950A94D2F781E090E03F
:100AB000A0E0B0E004C0880F991FAA1FBB1F2A95B1
:100AC000D2F70197A109B1098E219F21A023B1235B
:100AD0000097A105B10521F081E090E0A0E0B0E031
:100AE0009A01AB01282B392B4A2B5B2BDA01C90168
:100AF0008F779070A070B07080349105A105B1051A
:100B000039F427FF09C0205C3F4F4F4F5F4F04C0AF
:100B1000215C3F4F4F4F5F4FE0E0F0E02030A0E01E
:100B20003A07A0E04A07A0E45A0710F0E1E0F0E03D
:100B300079018A0127C06038710564F5FB01E1582D
:100B4000FF4FD801C7018F779070A070B0708034CC
:100B50009105A105B10539F4E7FE0DC080E490E0F0
:100B6000A0E0B0E004C08FE390E0A0E0B0E0E80EC9
:100B7000F91E0A1F1B1F17FF05C016950795F7944E
:100B8000E794319687E016950795F794E7948A9550
:100B9000D1F705C0EE24FF248701EFEFF0E06E2FC0
:100BA000679566276795902F9F77D794DD24D79414
:100BB0008E2F8695492F462B582F5D29B701CA01E4
:100BC0001F910F91FF90EF90DF900895FC01DB01E2
:100BD000408151812281622F6F7770E0221F22278E
:100BE000221F9381892F880F822B282F30E0991F95
:100BF0009927991F11969C93119721153105A9F5F5
:100C0000411551056105710511F482E037C082E894
:100C10009FEF13969C938E9312979A01AB0167E016
:100C2000220F331F441F551F6A95D1F783E08C9321
:100C30000DC0220F331F441F551F12968D919C919A
:100C40001397019713969C938E931297203080E010
:100C5000380780E0480780E4580758F314962D932E
:100C60003D934D935C93179708952F3F310579F489
:100C7000411551056105710519F484E08C930895BF
:100C800064FF03C081E08C9312C01C9210C02F57E8
:100C9000304013963C932E93129783E08C9387E019
:100CA000440F551F661F771F8A95D1F770641496FD
:100CB0004D935D936D937C93179708951F93DC017B
:100CC000FB019C91923008F447C08081823008F487
:100CD00043C0943051F411961C91843099F5818170
:100CE000682F70E0611B71093FC0843021F09230A1
:100CF00031F48230B9F18181882389F12DC01196B8
:100D00001C9111978230F1F081811817D9F4129655
:100D10002D913C911397828193818217930794F0D0
:100D200028173907BCF014968D919D910D90BC91B8
:100D3000A02D2481358146815781281739074A071C
:100D40005B0718F4112341F00AC082179307A40728
:100D5000B50740F4112319F061E070E005C06FEFB2
:100D60007FEF02C060E070E0CB011F91089513BED9
:100D700089B7816089BF089582BF0895A0E0B0E07F
:100D80008093780190937901A0937A01B0937B01CD
:100D9000709377016093760183B7887F826083BF09
:100DA000089583B7887F826083BF089583B7887F63
:100DB00083BF08951F920F920FB60F9211242F93A5
:100DC0003F934F935F936F937F938F939F93AF93D3
:100DD000BF93EF93FF938091720190917301A09163
:100DE0007401B09175010196A11DB11D809372012E
:100DF00090937301A0937401B093750120917801D1
:100E00003091790140917A0150917B0182179307CB
:100E1000A407B50779F4E0917601F0917701309756
:100E200049F00995109272011092730110927401A9
:100E300010927501FF91EF91BF91AF919F918F91AA
:100E40007F916F915F914F913F912F910F900FBEC6
:100E50000F901F9018958FB780688FBF08958FB738
:100E60008F778FBF089585B78E7F85BF85B78260E6
:100E700085BF8BB780648BBF85B78B7F85BF85B7F8
:100E8000886085BF8BB780688BBF84B78F7B84BF3A
:100E90008BB780628BBF08954130B1F5813099F0F6
:100EA000813030F08230D1F0833009F067C021C04A
:100EB0002AB381E090E002C0880F991F6A95E2F79B
:100EC000282B2ABB089527B381E090E002C0880F49
:100ED000991F6A95E2F7282B27BB089524B381E078
:100EE00090E002C0880F991F6A95E2F7282B24BB77
:100EF000089521B381E090E002C0880F991F6A95A0
:100F0000E2F7282B21BB08954423C1F5813099F0E5
:100F1000813028F08230D9F0833081F524C02AB3A3
:100F200081E090E002C0880F991F6A95E2F78095F2
:100F300082238ABB089527B381E090E002C0880F26
:100F4000991F6A95E2F78095822387BB089524B3A1
:100F500081E090E002C0880F991F6A95E2F78095C2
:100F6000822384BB089521B381E090E002C0880F02
:100F7000991F6A95E2F78095822381BB08954130DD
:100F8000B1F5813099F0813030F08230D1F083308A
:100F900009F067C021C02BB381E090E002C0880F48
:100FA000991F6A95E2F7282B2BBB089528B381E09F
:100FB00090E002C0880F991F6A95E2F7282B28BBA2
:100FC000089525B381E090E002C0880F991F6A95CB
:100FD000E2F7282B25BB089522B381E090E002C000
:100FE000880F991F6A95E2F7282B22BB08954423A6
:100FF000C1F5813099F0813028F08230D9F083300A
:1010000081F524C02BB381E090E002C0880F991FC6
:101010006A95E2F7809582238BBB089528B381E01F
:1010200090E002C0880F991F6A95E2F780958223AD
:1010300088BB089525B381E090E002C0880F991F16
:101040006A95E2F78095822385BB089522B381E0FB
:1010500090E002C0880F991F6A95E2F7809582237D
:1010600082BB0895813051F0813030F0823041F000
:10107000833079F080E0089589B303C086B301C05E
:1010800083B390E002C0959587956A95E2F78170E9
:10109000089580B390E002C0959587956A95E2F730
:1010A00081700895813049F0813028F0823039F024
:1010B000833041F406C06ABB089567BB089564BBE2
:1010C000089561BB0895813049F0813028F0823065
:1010D00039F0833041F406C06BBB089568BB0895B6
:1010E00065BB089562BB0895813051F0813030F0C6
:1010F000823041F0833041F080E008958BB3089551
:1011000088B3089585B3089582B30895813091F02E
:10111000813028F08230C9F0833061F521C02BB3D3
:1011200081E090E002C0880F991F6A95E2F72827B6
:101130002BBB089528B381E090E002C0880F991F6F
:101140006A95E2F7282728BB089525B381E090E04F
:1011500002C0880F991F6A95E2F7282725BB0895DA
:1011600022B381E090E002C0880F991F6A95E2F7F0
:10117000282722BB08953F983E9A3D9886B1887FE4
:10118000866086B935983398379A089597B18770F5
:10119000907E892B87B9369A349BFECF349A24B13E
:1011A00035B1C90108956F927F928F929F92AF924D
:1011B000BF92CF92DF92EF92FF920F931F933B016A
:1011C0004C015901C701B9010E94EE0ACB01829F6F
:1011D000B001839F700D929F700D112480E090E00C
:1011E0000E944904A40193010E941F027B018C010B
:1011F000CC24DD24C601B5010E9449049B01AC0149
:10120000C801B7010E9419030E944900DC01CB010B
:101210001F910F91FF90EF90DF90CF90BF90AF9014
:101220009F908F907F906F90089597B18770907E78
:10123000892B87B9369A089524B135B1C90108952B
:101240001F920F920FB60F9211240F900FBE0F90A6
:101250001F90189581E06FEF0E94630808958A300F
:1012600048F4E82FF0E0E859FE4F6081609581E096
:101270000E946308089581E06FEF0E94520808956C
:101280000F931F93182F82E060E041E00E94BF0798
:1012900082E061E040E00E94BF0783E0612F0E948E
:1012A000630882E062E041E00E94BF0700ED17E0C2
:1012B000C8010197F1F782E062E040E00E94BF07B9
:1012C000C8010197F1F71F910F910895883010F42C
:1012D0000E94400908958F929F92BF92CF92DF9211
:1012E000EF92FF920F931F93DF93CF93CDB7DEB7AB
:1012F0002A970FB6F894DEBF0FBECDBF6B017C01FD
:10130000FE0131968AE0DF011D928A95E9F7BB2440
:101310004F011AC084010B0D111DC701B6012AE04F
:1013200030E040E050E00E94020BF8016083B3948B
:10133000C701B6012AE030E040E050E00E94020B15
:10134000C901DA016C017D011C141D041E041F0477
:101350000CF38981805D0E9440092A960FB6F894AB
:10136000DEBF0FBECDBFCF91DF911F910F91FF90D8
:10137000EF90DF90CF90BF909F908F9008951F9334
:10138000CF93DF93EC0110E003C00E9440091F5F80
:10139000FE01E10FF11D80818823B9F7DF91CF9124
:1013A0001F9108950F931F93182F82E060E040E093
:1013B0000E94BF0782E061E040E00E94BF0783E037
:1013C000612F0E94630882E062E041E00E94BF0753
:1013D00000ED17E0C8010197F1F782E062E040E01C
:1013E0000E94BF07C8010197F1F71F910F9108955F
:1013F00081E00E94D20908950F931F93CF93DF934A
:101400008B01883030F4880F880F880F805C0E9431
:10141000D209C0E0D0E0F801EC0FFD1F80810E94EE
:1014200040092196C830D105B1F780E80E94D20961
:10143000DF91CF911F910F910895823080F4603138
:1014400070F4882319F0813051F405C0862F80583C
:101450000E94D2090895862F80540E94D2090895CF
:101460000F931F9382E060E041E00E944C0782E00E
:1014700061E041E00E944C0782E062E041E00E94AE
:101480004C0783E06FEF0E94520884EF91E028EC54
:1014900030E0F9013197F1F70197D9F788E30E941D
:1014A000D20900ED17E0C8010197F1F78CE00E9426
:1014B000D209C8010197F1F781E00E94D20980EAC0
:1014C0009FE00197F1F786E00E94D209C8010197D9
:1014D000F1F71F910F9108958F929F92BF92CF9233
:1014E000DF92EF92FF920F931F93CF93DF936C01E4
:1014F000EE24C0E0D0E090E2892E9EE4992EBC2E2E
:1015000081E06C2F40E00E94BF0786010C0F1D1F79
:1015100084E0F82E81E06F2D0E943208882311F4B8
:10152000F801E08081E06F2D0E9432088823D1F31A
:10153000C4010197F1F7F3940C5F1F4FF8E0FF1619
:1015400049F781E06B2D41E00E94BF072196C4302E
:10155000D105A9F68E2DDF91CF911F910F91FF90AC
:10156000EF90DF90CF90BF909F908F90089581E093
:101570006FE00E94520881E06FEF0E9463080895B7
:10158000EF92FF920F931F930E94BB0881E06FEFD1
:101590000E94520880E00E94C608A0E0B0E0BC01B2
:1015A000CD010E94490440E050E02FEF33E000E01D
:1015B00010E0E8E0EE2EF12C0E94D308E82EFF2484
:1015C00010E006C081E0612F41E00E94BF071F5F6D
:1015D000812F90E08E159F05E8F6F4CFAA1BBB1B68
:1015E00051E107C0AA1FBB1FA617B70710F0A61B23
:1015F000B70B881F991F5A95A9F780959095BC0144
:10160000CD01089597FB092E05260ED057FD04D075
:1016100014D00AD0001C38F450954095309521958F
:101620003F4F4F4F5F4F0895F6F790958095709517
:1016300061957F4F8F4F9F4F0895A1E21A2EAA1BED
:10164000BB1BFD010DC0AA1FBB1FEE1FFF1FA21772
:10165000B307E407F50720F0A21BB30BE40BF50B6F
:10166000661F771F881F991F1A9469F760957095F8
:10167000809590959B01AC01BD01CF0108952F92FB
:101680003F924F925F926F927F928F929F92AF9212
:10169000BF92CF92DF92EF92FF920F931F93CF935F
:1016A000DF93CDB7DEB7CA1BDB0B0FB6F894DEBFF6
:1016B0000FBECDBF09942A88398848885F846E841C
:1016C0007D848C849B84AA84B984C884DF80EE8066
:1016D000FD800C811B81AA81B981CE0FD11D0FB66F
:1016E000F894DEBF0FBECDBFED010895F894FFCF93
:1016F00000000000000000000001020203030303D9
:101700000404040404040404050505050505050591
:101710000505050505050505060606060606060671
:101720000606060606060606060606060606060659
:101730000606060606060606070707070707070741
:101740000707070707070707070707070707070729
:101750000707070707070707070707070707070719
:101760000707070707070707070707070707070709
:1017700007070707070707070808080808080808F1
:1017800008080808080808080808080808080808D9
:1017900008080808080808080808080808080808C9
:1017A00008080808080808080808080808080808B9
:1017B00008080808080808080808080808080808A9
:1017C0000808080808080808080808080808080899
:1017D0000808080808080808080808080808080889
:1017E0000808080808080808080808080808080879
:1017F00008080808080808083F065B4F666D7D0763
:021800007F6FF8
:00000001FF
