:100000000C942A000C943F000C943F000C943F0089
:100010000C943F000C943F000C943F000C943F0064
:100020000C943F000C943F000C943F000C943F0054
:100030000C943F000C943F000C943F000C943F0044
:100040000C946F060C943F000C943F000C943F00FE
:100050000C943F0011241FBECFE5D8E0DEBFCDBF1A
:1000600011E0A0E6B0E0EEE6F1E102C005900D92ED
:10007000AA36B107D9F70E94FF070C94B5080C9473
:100080000000A8E1B0E0E7E4F0E00C948A0869839E
:100090007A838B839C832D833E834F83588789E0AB
:1000A000E82EF12CEC0EFD1ECE010196B7010E9448
:1000B000CC028E010F5E1F4FCE010596B8010E9443
:1000C000CC028985823040F08989823028F0C701CE
:1000D000B8010E94440301C081E06896E6E00C94F8
:1000E000A608A8E1B0E0E7E7F0E00C948A0869838D
:1000F0007A838B839C832D833E834F83588789E04B
:10010000E82EF12CEC0EFD1ECE010196B7010E94E7
:10011000CC028E010F5E1F4FCE010596B8010E94E2
:10012000CC028985823040F08989823028F0C7016D
:10013000B8010E94440301C08FEF6896E6E00C947A
:10014000A608A8E1B0E0E7EAF0E00C948A08698329
:100150007A838B839C832D833E834F83588789E0EA
:10016000E82EF12CEC0EFD1ECE010196B7010E9487
:10017000CC028E010F5E1F4FCE010596B8010E9482
:10018000CC028985823040F08989823028F0C7010D
:10019000B8010E94440301C081E06896E6E00C9437
:1001A000A608A8E0B0E0E7EDF0E00C9487089B011A
:1001B000AC0183E08983DA01C9018827B7FD839503
:1001C0009927AA27BB27B82E2115310541055105CE
:1001D00019F482E089833AC08823A9F0203080E0B6
:1001E000380780E0480780E8580729F460E070E0AD
:1001F00080E09FEC30C0EE24FF248701E21AF30A6E
:10020000040B150B02C079018A018EE1C82ED12C96
:10021000DC82CB82ED82FE820F831887C801B70192
:100220000E94A80101971816190684F4082E04C02C
:10023000EE0CFF1C001F111F0A94D2F7ED82FE8204
:100240000F831887C81AD90ADC82CB82BA82CE0102
:1002500001960E94F7012896E9E00C94A308A8E013
:10026000B0E0E5E3F1E00C9486087B018C016115B8
:1002700071058105910519F482E0898360C083E0EE
:1002800089838EE1C82ED12CDC82CB82ED82FE8266
:100290000F831887C801B7010E94A801FC0131979C
:1002A000F7FF3BC0222733272E1B3F0B5701680166
:1002B000022E04C0D694C794B794A7940A94D2F798
:1002C00040E050E060E070E081E090E0A0E0B0E06D
:1002D00004C0880F991FAA1FBB1F2A95D2F7019748
:1002E000A109B1098E219F21A023B1230097A10567
:1002F000B10521F041E050E060E070E04A295B295F
:100300006C297D294D835E836F8378878EE190E031
:100310008E1B9F0B9C838B8312C0309781F00E2E17
:1003200004C0EE0CFF1C001F111F0A94D2F7ED82CF
:10033000FE820F831887CE1ADF0ADC82CB821A82F4
:10034000CE0101960E94F7012896EAE00C94A208DB
:10035000EF92FF920F931F937B018C0180E0E816D0
:1003600080E0F80681E0080780E0180788F48FEF46
:10037000E816F1040105110531F028F088E090E05D
:10038000A0E0B0E017C080E090E0A0E0B0E012C0D4
:1003900080E0E81680E0F80680E0080781E01807B2
:1003A00028F088E190E0A0E0B0E004C080E190E0B7
:1003B000A0E0B0E020E230E040E050E0281B390B44
:1003C0004A0B5B0B04C016950795F794E7948A9542
:1003D000D2F7F701E05AFF4F8081281B310941090C
:1003E0005109C9011F910F91FF90EF900895DF927D
:1003F000EF92FF920F931F93FC01E480F58006813A
:100400001781D1808081823048F480E090E0A0E1C3
:10041000B0E0E82AF92A0A2B1B2BA5C0843009F486
:100420009FC0823021F4EE24FF24870105C0E1142F
:10043000F1040105110519F4E0E0F0E096C06281D5
:1004400073819FEF623879070CF05BC022E83FEFC1
:10045000261B370B2A3131052CF020E030E040E03C
:1004600050E02AC0B801A701022E04C07695679516
:10047000579547950A94D2F781E090E0A0E0B0E06C
:1004800004C0880F991FAA1FBB1F2A95D2F7019796
:10049000A109B1098E219F21A023B1230097A105B5
:1004A000B10521F081E090E0A0E0B0E09A01AB015D
:1004B000282B392B4A2B5B2BDA01C9018F779070DF
:1004C000A070B07080349105A105B10539F427FF03
:1004D00009C0205C3F4F4F4F5F4F04C0215C3F4F2E
:1004E0004F4F5F4FE0E0F0E02030A0E03A07A0E09F
:1004F0004A07A0E45A0710F0E1E0F0E079018A0130
:1005000027C06038710564F5FB01E158FF4FD80141
:10051000C7018F779070A070B07080349105A105ED
:10052000B10539F4E7FE0DC080E490E0A0E0B0E052
:1005300004C08FE390E0A0E0B0E0E80EF91E0A1FCF
:100540001B1F17FF05C016950795F794E794319682
:1005500087E016950795F794E7948A95D1F705C03B
:10056000EE24FF248701EFEFF0E06E2F67956627FA
:100570006795902F9F77D794DD24D7948E2F8695FB
:10058000492F462B582F5D29B701CA011F910F91A2
:10059000FF90EF90DF900895FC01DB0140815181D5
:1005A0002281622F6F7770E0221F2227221F938102
:1005B000892F880F822B282F30E0991F9927991FA8
:1005C00011969C93119721153105A9F541155105F7
:1005D0006105710511F482E037C082E89FEF139640
:1005E0009C938E9312979A01AB0167E0220F331F01
:1005F000441F551F6A95D1F783E08C930DC0220FDD
:10060000331F441F551F12968D919C91139701978C
:1006100013969C938E931297203080E0380780E0E9
:10062000480780E4580758F314962D933D934D9353
:100630005C93179708952F3F310579F441155105C3
:100640006105710519F484E08C93089564FF03C07B
:1006500081E08C9312C01C9210C02F57304013962B
:100660003C932E93129783E08C9387E0440F551FA1
:10067000661F771F8A95D1F7706414964D935D932A
:100680006D937C93179708951F93DC01FB019C9158
:10069000923008F447C08081823008F443C094301F
:1006A00051F411961C91843099F58181682F70E086
:1006B000611B71093FC0843021F0923031F48230E7
:1006C000B9F18181882389F12DC011961C91119770
:1006D0008230F1F081811817D9F412962D913C9156
:1006E0001397828193818217930794F02817390713
:1006F000BCF014968D919D910D90BC91A02D2481FC
:10070000358146815781281739074A075B0718F456
:10071000112341F00AC082179307A407B50740F4DC
:10072000112319F061E070E005C06FEF7FEF02C0A8
:1007300060E070E0CB011F9108954130B1F5813048
:1007400099F0813030F08230D1F0833009F067C009
:1007500021C02AB381E090E002C0880F991F6A95FA
:10076000E2F7282B2ABB089527B381E090E002C06E
:10077000880F991F6A95E2F7282B27BB089524B3A9
:1007800081E090E002C0880F991F6A95E2F7282B5C
:1007900024BB089521B381E090E002C0880F991F27
:1007A0006A95E2F7282B21BB08954423C1F58130D7
:1007B00099F0813028F08230D9F0833081F524C05F
:1007C0002AB381E090E002C0880F991F6A95E2F792
:1007D000809582238ABB089527B381E090E002C010
:1007E000880F991F6A95E2F78095822387BB089549
:1007F00024B381E090E002C0880F991F6A95E2F768
:100800008095822384BB089521B381E090E002C0EB
:10081000880F991F6A95E2F78095822381BB08951E
:100820004130B1F5813099F0813030F08230D1F033
:10083000833009F067C021C02BB381E090E002C093
:10084000880F991F6A95E2F7282B2BBB089528B3D0
:1008500081E090E002C0880F991F6A95E2F7282B8B
:1008600028BB089525B381E090E002C0880F991F4E
:100870006A95E2F7282B25BB089522B381E090E02A
:1008800002C0880F991F6A95E2F7282B22BB0895B2
:100890004423C1F5813099F0813028F08230D9F0BD
:1008A000833081F524C02BB381E090E002C0880F33
:1008B000991F6A95E2F7809582238BBB089528B330
:1008C00081E090E002C0880F991F6A95E2F7809559
:1008D000822388BB089525B381E090E002C0880F91
:1008E000991F6A95E2F78095822385BB089522B30C
:1008F00081E090E002C0880F991F6A95E2F7809529
:10090000822382BB0895813051F0813030F08230F3
:1009100041F0833079F080E0089589B303C086B355
:1009200001C083B390E002C0959587956A95E2F780
:100930008170089580B390E002C0959587956A957F
:10094000E2F781700895813049F0813028F08230DB
:1009500039F0833041F406C06ABB089567BB08953F
:1009600064BB089561BB0895813049F0813028F05F
:10097000823039F0833041F406C06BBB089568BB08
:10098000089565BB089562BB0895813051F08130B0
:1009900030F0823041F0833041F080E008958BB335
:1009A000089588B3089585B3089582B308953F9854
:1009B0003E9A3D9886B1887F866086B9359833988F
:1009C000379A089597B18770907E892B87B9369AA8
:1009D000349BFECF349A24B135B1C90108958F926A
:1009E0009F92AF92BF92CF92DF92EF92FF920F93BE
:1009F0001F93CF93DF935B016C014A01E90120E073
:100A000030E040E050E00E944100882309F44FC1EB
:100A1000C819D909E01AF10A0894E11CF11CCE01A9
:100A20000196B7010E942D08E62EFF24E09EB0013A
:100A3000E19E700DF09E700D112480E090E00E9408
:100A40002F019B01AC01C601B5010E94710087FF17
:100A500015C00894E108F108B701882777FD809553
:100A6000982F0894E11CF11C0E94D1009B01AC015D
:100A7000C601B5010E94A10018161CF080E090E0AC
:100A800016C18701000F111FB701882777FD8095D8
:100A9000982F0E94D1009B01AC01C601B5010E94B4
:100AA000710087FF13C001501040B801882777FDFF
:100AB0008095982F0F5F1F4F0E94D1009B01AC01C2
:100AC000C601B5010E94A10018161CF081E090E05B
:100AD000EEC0E801CE0DDF1DB801882777FD8095B7
:100AE000982F0E94D1009B01AC01C601B5010E9464
:100AF000710087FF11C0BE0161507040882777FDEB
:100B00008095982F0E94D1009B01AC01C601B501D0
:100B10000E94A10018161CF082E090E0C8C0870176
:100B2000000F111F000F111FBE01882777FD809550
:100B3000982F0E94D1009B01AC01C601B5010E9413
:100B4000710087FF13C001501040B801882777FD5E
:100B50008095982F0F5F1F4F0E94D1009B01AC0121
:100B6000C601B5010E94A10018161CF083E090E0B8
:100B70009EC048018E0C9F1CB801882777FD809588
:100B8000982F0E94D1009B01AC01C601B5010E94C3
:100B9000710087FF11C0B40161507040882777FD54
:100BA0008095982F0E94D1009B01AC01C601B50130
:100BB0000E94A10018161CF084E090E078C0E701C4
:100BC000CC0FDD1FCE0DDF1DCC0FDD1FB40188273C
:100BD00077FD8095982F0E94D1009B01AC01C60142
:100BE000B5010E94710087FF11C0BE0161507040C5
:100BF000882777FD8095982F0E94D1009B01AC013A
:100C0000C601B5010E94A10018161CF085E090E015
:100C10004EC0470183E0880C991C8A95E1F7840156
:100C20000E191F09BE01882777FD8095982F0E9415
:100C3000D1009B01AC01C601B5010E94710087FF84
:100C400011C0B80161507040882777FD8095982FBA
:100C50000E94D1009B01AC01C601B5010E94A10018
:100C600018161CF086E090E022C0B801882777FDB6
:100C70008095982F0E94D1009B01AC01C601B5015F
:100C80000E94710087FF11C0B40161507040882735
:100C900077FD8095982F0E94D1009B01AC01C60181
:100CA000B5010E94A100181614F087E090E0DF91D2
:100CB000CF911F910F91FF90EF90DF90CF90BF9059
:100CC000AF909F908F90089597B18770907E892BF9
:100CD00087B9369A089524B135B1C90108951F9294
:100CE0000F920FB60F9211240F900FBE0F901F900E
:100CF000189581E06FEF0E94B40408958A3048F49B
:100D0000E82FF0E0E05AFE4F6081609581E00E949C
:100D1000B404089581E06FEF0E94A30408950F9337
:100D20001F93182F82E060E041E00E94100482E0EF
:100D300061E040E00E94100483E0612F0E94B4044F
:100D400082E062E041E00E94100400ED17E0C8017B
:100D50000197F1F782E062E040E00E941004C801D0
:100D60000197F1F71F910F910895883010F40E94B8
:100D70008F0608958F929F92BF92CF92DF92EF924B
:100D8000FF920F931F93DF93CF93CDB7DEB72A97D0
:100D90000FB6F894DEBF0FBECDBF6B017C01FE0124
:100DA00031968AE0DF011D928A95E9F7BB244F0155
:100DB0001AC084010B0D111DC701B6012AE030E0F5
:100DC00040E050E00E944108F8016083B394C701FD
:100DD000B6012AE030E040E050E00E944108C9013D
:100DE000DA016C017D011C141D041E041F040CF3A8
:100DF0008981805D0E948F062A960FB6F894DEBF27
:100E00000FBECDBFCF91DF911F910F91FF90EF905B
:100E1000DF90CF90BF909F908F9008951F93CF93B6
:100E2000DF93EC0110E003C00E948F061F5FFE01FC
:100E3000E10FF11D80818823B9F7DF91CF911F91D8
:100E400008950F931F93182F82E060E040E00E9406
:100E5000100482E061E040E00E94100483E0612F12
:100E60000E94B40482E062E041E00E94100400EDC0
:100E700017E0C8010197F1F782E062E040E00E94CC
:100E80001004C8010197F1F71F910F91089581E0B7
:100E90000E94210708950F931F93CF93DF938B0137
:100EA000883030F4880F880F880F805C0E942107FB
:100EB000C0E0D0E0F801EC0FFD1F80810E948F069A
:100EC0002196C830D105B1F780E80E942107DF9153
:100ED000CF911F910F910895823080F4603170F4AA
:100EE000882319F0813051F405C0862F80580E9464
:100EF00021070895862F80540E94210708950F939B
:100F00001F9382E060E041E00E949D0382E061E087
:100F100041E00E949D0382E062E041E00E949D0367
:100F200083E06FEF0E94A30484EF91E028EC30E0AF
:100F3000F9013197F1F70197D9F788E30E9421076A
:100F400000ED17E0C8010197F1F78CE00E9421073E
:100F5000C8010197F1F781E00E94210780EA9FE034
:100F60000197F1F786E00E942107C8010197F1F788
:100F70001F910F910895DF92EF92FF920F931F93AD
:100F8000CF93DF93DD24FF24EE24E394C0E2DEE47C
:100F900081E06F2D40E00E9410040E2D14E081E0EE
:100FA000612F0E948304882309F4D02E81E0612FF1
:100FB0000E9483048823D1F3CE010197F1F71F5FCC
:100FC0000F5F183061F781E06F2D41E00E9410043F
:100FD000F39484E0E80EF816D9F68D2DDF91CF91C9
:100FE0001F910F91FF90EF90DF90089581E06FE0E7
:100FF0000E94A30481E06FEF0E94B4040895EF9271
:10100000FF920F931F930E94D70481E06FEF0E941D
:10101000A30480E00E94E204A0E0B0E0BC01CD01A6
:101020000E942F0140E050E023EB34E000E010E0AC
:10103000E8E0EE2EF12C0E94EF04E82EFF2410E0F1
:1010400006C081E0612F41E00E9410041F5F812FE4
:1010500090E08E159F05E8F6F4CFAA1BBB1B51E16B
:1010600007C0AA1FBB1FA617B70710F0A61BB70B18
:10107000881F991F5A95A9F780959095BC01CD01BD
:10108000089597FB092E05260ED057FD04D014D0E5
:101090000AD0001C38F450954095309521953F4F6B
:1010A0004F4F5F4F0895F6F7909580957095619535
:1010B0007F4F8F4F9F4F0895A1E21A2EAA1BBB1B93
:1010C000FD010DC0AA1FBB1FEE1FFF1FA217B30714
:1010D000E407F50720F0A21BB30BE40BF50B661F2A
:1010E000771F881F991F1A9469F7609570958095EE
:1010F00090959B01AC01BD01CF0108952F923F92C5
:101100004F925F926F927F928F929F92AF92BF9217
:10111000CF92DF92EF92FF920F931F93CF93DF93C3
:10112000CDB7DEB7CA1BDB0B0FB6F894DEBF0FBE20
:10113000CDBF09942A88398848885F846E847D846D
:101140008C849B84AA84B984C884DF80EE80FD806F
:101150000C811B81AA81B981CE0FD11D0FB6F894E5
:0E116000DEBF0FBECDBFED010895F894FFCFA6
:10116E000001020203030303040404040404040440
:10117E000505050505050505050505050505050511
:10118E0006060606060606060606060606060606F1
:10119E0006060606060606060606060606060606E1
:1011AE0007070707070707070707070707070707C1
:1011BE0007070707070707070707070707070707B1
:1011CE0007070707070707070707070707070707A1
:1011DE000707070707070707070707070707070791
:1011EE000808080808080808080808080808080871
:1011FE000808080808080808080808080808080861
:10120E000808080808080808080808080808080850
:10121E000808080808080808080808080808080840
:10122E000808080808080808080808080808080830
:10123E000808080808080808080808080808080820
:10124E000808080808080808080808080808080810
:10125E000808080808080808080808080808080800
:0A126E003F065B4F666D7D077F6F42
:00000001FF
