:100000000C942A000C943F000C943F000C943F0089
:100010000C943F000C943F000C943F000C943F0064
:100020000C943F000C943F000C943F000C943F0054
:100030000C943F000C943F000C943F000C943F0044
:100040000C943F000C943F000C943F000C943F0034
:100050000C943F0011241FBECFE5D8E0DEBFCDBF1A
:1000600010E0A0E6B0E0EEE7F6E002C005900D92E9
:10007000AA36B107D9F70E94DF020C943D030C9415
:1000800000004130B1F5813099F0813030F082309C
:10009000D1F0833009F067C021C02AB381E090E03D
:1000A00002C0880F991F6A95E2F7282B2ABB089592
:1000B00027B381E090E002C0880F991F6A95E2F7AC
:1000C000282B27BB089524B381E090E002C0880F5D
:1000D000991F6A95E2F7282B24BB089521B381E08C
:1000E00090E002C0880F991F6A95E2F7282B21BB88
:1000F00008954423C1F5813099F0813028F0823091
:10010000D9F0833081F524C02AB381E090E002C0A9
:10011000880F991F6A95E2F7809582238ABB08951C
:1001200027B381E090E002C0880F991F6A95E2F73B
:100130008095822387BB089524B381E090E002C0BC
:10014000880F991F6A95E2F78095822384BB0895F2
:1001500021B381E090E002C0880F991F6A95E2F711
:100160008095822381BB08954130B1F5813099F0AB
:10017000813030F08230D1F0833009F067C021C087
:100180002BB381E090E002C0880F991F6A95E2F7D7
:10019000282B2BBB089528B381E090E002C0880F84
:1001A000991F6A95E2F7282B28BB089525B381E0B3
:1001B00090E002C0880F991F6A95E2F7282B25BBB3
:1001C000089522B381E090E002C0880F991F6A95DC
:1001D000E2F7282B22BB08954423C1F5813099F022
:1001E000813028F08230D9F0833081F524C02BB3E0
:1001F00081E090E002C0880F991F6A95E2F7809530
:1002000082238BBB089528B381E090E002C0880F61
:10021000991F6A95E2F78095822388BB089525B3DC
:1002200081E090E002C0880F991F6A95E2F78095FF
:10023000822385BB089522B381E090E002C0880F3D
:10024000991F6A95E2F78095822382BB08958130D9
:1002500051F0813030F0823041F0833079F080E02D
:10026000089589B303C086B301C083B390E002C090
:10027000959587956A95E2F78170089580B390E02F
:1002800002C0959587956A95E2F78170089581304F
:1002900049F0813028F0823039F0833041F406C0D3
:1002A0006ABB089567BB089564BB089561BB089558
:1002B000813049F0813028F0823039F0833041F4C8
:1002C00006C06BBB089568BB089565BB089562BB0B
:1002D0000895813051F0813030F0823041F0833028
:1002E00041F080E008958BB3089588B3089585B3F5
:1002F000089582B308953F983E9A3D9886B1887FCD
:10030000826086B935983398379A089597B1877087
:10031000907E892B87B9369A349BFECF349A24B1CC
:1003200035B1C901089581E06FEF0E945801089529
:100330008A3048F4E82FF0E0E05AFF4F6081609582
:1003400081E00E945801089581E06FEF0E9447010B
:1003500008950895089508950F931F93182F80E02E
:1003600060E041E00E94B40080E061E040E00E9473
:10037000B40083E0612F0E94580180E062E041E018
:100380000E94B40000ED17E0C8010197F1F780E08A
:1003900062E040E00E94B400C8010197F1F71F91AC
:1003A0000F9108958F929F92BF92CF92DF92EF921A
:1003B000FF920F931F93DF93CF93CDB7DEB72A97AA
:1003C0000FB6F894DEBF0FBECDBF6B017C01FE01FE
:1003D00031968AE0DF011D928A95E9F7BB244F012F
:1003E0001AC084010B0D111DC701B6012AE030E0CF
:1003F00040E050E00E940003F8016083B394C7011D
:10040000B6012AE030E040E050E00E940003C9015C
:10041000DA016C017D011C141D041E041F040CF381
:100420008981805D0E94AC012A960FB6F894DEBFE8
:100430000FBECDBFCF91DF911F910F91FF90EF9035
:10044000DF90CF90BF909F908F9008951F93CF9390
:10045000DF93EC0110E003C00E94AC011F5FFE01BE
:10046000E10FF11D80818823B9F7DF91CF911F91B2
:1004700008950F931F93182F80E060E040E00E94E2
:10048000B40080E061E040E00E94B40083E0612FAE
:100490000E94580180E062E041E00E94B40000ED5B
:1004A00017E0C8010197F1F780E062E040E00E94A8
:1004B000B400C8010197F1F71F910F9108950F93B0
:1004C0001F9380E060E041E00E94410080E061E035
:1004D00041E00E94410080E062E041E00E94410072
:1004E00083E06FEF0E94470184EF91E028EC30E059
:1004F000F9013197F1F70197D9F788E30E943902A2
:1005000000ED17E0C8010197F1F78CE00E94390275
:10051000C8010197F1F781E00E94390280EA9FE06B
:100520000197F1F786E00E943902C8010197F1F7BF
:100530001F910F910895DF92EF92FF920F931F93F7
:10054000CF93DF93DD24FF24EE24E394C0E2DEE4C6
:1005500081E06F2D40E00E94B4000E2D14E081E098
:10056000612F0E942701882309F4D02E81E0612F9A
:100570000E9427018823D1F3CE010197F1F71F5F75
:100580000F5F183061F781E06F2D41E00E94B400E9
:10059000F39484E0E80EF816D9F68D2DDF91CF9113
:1005A0001F910F91FF90EF90DF90089581E06FE031
:1005B0000E94470181E06FEF0E9458010895EF9279
:1005C000FF920F931F93CF93DF930E947B010E94B2
:1005D0005F02C8ECD0E080E00E9486017C0181E0EF
:1005E0000E94390200E010E0C801B7010E94D20168
:1005F00080E29EE4FE013197F1F70197D9F7EBCF46
:1006000097FB092E05260ED057FD04D014D00AD032
:10061000001C38F450954095309521953F4F4F4F31
:100620005F4F0895F6F790958095709561957F4F8F
:100630008F4F9F4F0895A1E21A2EAA1BBB1BFD01ED
:100640000DC0AA1FBB1FEE1FFF1FA217B307E407B1
:10065000F50720F0A21BB30BE40BF50B661F771F09
:10066000881F991F1A9469F76095709580959095E9
:0E0670009B01AC01BD01CF010895F894FFCFAE
:0A067E003F065B4F666D7D077F6F3E
:00000001FF
