:100000000C942A000C943F000C943F000C943F0089
:100010000C943F000C943F000C943F000C943F0064
:100020000C943F000C943F000C943F000C943F0054
:100030000C943F000C943F000C943F000C943F0044
:100040000C943F000C943F000C943F000C943F0034
:100050000C943F0011241FBECFE5D8E0DEBFCDBF1A
:1000600010E0A0E6B0E0E2E5F5E002C005900D92F8
:10007000A438B107D9F70E9474020C94A7020C941B
:1000800000004130B1F5813099F0813030F082309C
:10009000D1F0833009F067C021C02AB381E090E03D
:1000A00002C0880F991F6A95E2F7282B2ABB089592
:1000B00027B381E090E002C0880F991F6A95E2F7AC
:1000C000282B27BB089524B381E090E002C0880F5D
:1000D000991F6A95E2F7282B24BB089521B381E08C
:1000E00090E002C0880F991F6A95E2F7282B21BB88
:1000F00008954423C1F5813099F0813028F0823091
:10010000D9F0833081F524C02AB381E090E002C0A9
:10011000880F991F6A95E2F7809582238ABB08951C
:1001200027B381E090E002C0880F991F6A95E2F73B
:100130008095822387BB089524B381E090E002C0BC
:10014000880F991F6A95E2F78095822384BB0895F2
:1001500021B381E090E002C0880F991F6A95E2F711
:100160008095822381BB08954130B1F5813099F0AB
:10017000813030F08230D1F0833009F067C021C087
:100180002BB381E090E002C0880F991F6A95E2F7D7
:10019000282B2BBB089528B381E090E002C0880F84
:1001A000991F6A95E2F7282B28BB089525B381E0B3
:1001B00090E002C0880F991F6A95E2F7282B25BBB3
:1001C000089522B381E090E002C0880F991F6A95DC
:1001D000E2F7282B22BB08954423C1F5813099F022
:1001E000813028F08230D9F0833081F524C02BB3E0
:1001F00081E090E002C0880F991F6A95E2F7809530
:1002000082238BBB089528B381E090E002C0880F61
:10021000991F6A95E2F78095822388BB089525B3DC
:1002200081E090E002C0880F991F6A95E2F78095FF
:10023000822385BB089522B381E090E002C0880F3D
:10024000991F6A95E2F78095822382BB08958130D9
:1002500051F0813030F0823041F0833079F080E02D
:10026000089589B303C086B301C083B390E002C090
:10027000959587956A95E2F78170089580B390E02F
:1002800002C0959587956A95E2F78170089581304F
:1002900049F0813028F0823039F0833041F406C0D3
:1002A0006ABB089567BB089564BB089561BB089558
:1002B000813049F0813028F0823039F0833041F4C8
:1002C00006C06BBB089568BB089565BB089562BB0B
:1002D0000895813051F0813030F0823041F0833028
:1002E00041F080E008958BB3089588B3089585B3F5
:1002F000089582B3089581E06FEF0E945801089538
:100300008A3048F4E82FF0E0E658FF4F60816095AE
:1003100081E00E945801089581E06FEF0E9447013B
:10032000089508950895089508950F931F93182F21
:1003300080E060E041E00E94B40080E061E040E0E5
:100340000E94B40083E0612F0E94580180E062E0C7
:1003500041E00E94B40000ED17E0C8010197F1F7F9
:1003600080E062E040E00E94B400C8010197F1F72C
:100370001F910F9108951F93CF93DF93EC0110E02D
:1003800003C00E9495011F5FFE01E10FF11D8081F6
:100390008823B9F7DF91CF911F9108950F931F9391
:1003A000182F80E060E040E00E94B40080E061E04F
:1003B00040E00E94B40083E0612F0E94580180E079
:1003C00062E041E00E94B40000ED17E0C80101972F
:1003D000F1F780E062E040E00E94B400C8010197BC
:1003E000F1F71F910F9108950F931F9380E060E044
:1003F00041E00E94410080E061E041E00E94410054
:1004000080E062E041E00E94410083E06FEF0E94E3
:10041000470184EF91E028EC30E0F9013197F1F7E2
:100420000197D9F788E30E94CE0100ED17E0C801DB
:100430000197F1F78CE00E94CE01C8010197F1F716
:1004400081E00E94CE0180EA9FE00197F1F786E00B
:100450000E94CE01C8010197F1F71F910F910895F5
:10046000DF92EF92FF920F931F93CF93DF93DD24E0
:10047000FF24EE24E394C0E2DEE481E06F2D40E04F
:100480000E94B4000E2D14E081E0612F0E9427012C
:10049000882309F4D02E81E0612F0E942701882350
:1004A000D1F3CE010197F1F71F5F0F5F183061F7AD
:1004B00081E06F2D41E00E94B400F39484E0E80EE7
:1004C000F816D9F68D2DDF91CF911F910F91FF90E6
:1004D000EF90DF90089581E06FE00E94470181E096
:1004E0006FEF0E9458010895CF93DF930E94F401AB
:1004F000C8ECD0E080E690E00E94BB0180E197E28A
:10050000FE013197F1F70197D9F781E00E94CE0102
:1005100082E30E94950181E30E94950180E197E2C8
:10052000FE013197F1F70197D9F781E00E94CE01E2
:100530008DE690E00E94BB0180E197E2FE013197D9
:10054000F1F70197D9F781E00E94CE01D3CFF8945B
:02055000FFCFDB
:100552004E616461204D616D646F756800456D6226
:10056200656464656420456E67003F065B4F666D97
:040572007D077F6F13
:00000001FF
